000000000000000000SIAPEFITAESP30204INPI      102012                                                                                                                                                                                                                                                                                                                                                                                                                                                                                                                                                                                                             
000000328044912951RJANTONIO MARTINS DA SILVA FILHO                              6878387671510870215318DILCE CARLINA AMARAL SILVA                        M2910196151000     1RJ000000000002207198600130820AV MONSENHOR FELIX                      512   CASA 04              IRAJA                    RIO DE JANEIRO                21235110RJ059548685     IFP  16111981RJ000667534034502421   32760375                                                                                                                                                                                                                                                                                                                                                                                     
000000328044912952RJEST0100000000000  104002097000000961069800000000000                   401206021991 0000000000466001SIII0109200600000000   00000   0000000000000000000000000   00000   000000000000000000000000000000000004800101201100000000000000010032207198604068      2207198601003220719860400000006822071986000000000000000         0000000000000000000000000000000         00000000000000000000000         00000000               00000000000000060230312200600         00000000EST0800000000000000000000000000000030204044912900000000000000000000000000000 0                                                                0000000000000000000000000R01111993000000000000000356222010000000000000000000000000000         00000000000000000000000         SSSSSSSSSSSSNSSSSSSSS
000000328044912953RJ1000010000002785320000000000000000                                                     000                   00000000000000000                                                                                                                                                                                                                                                                                                                                                                                                                                                                                                                                                                                                                                          
000000328044912953RJ1000130000000334230000000000000000                                                     000                   00000000000000000                                                                                                                                                                                                                                                                                                                                                                                                                                                                                                                                                                                                                                          
000000328044912953RJ1001360000000304000000000000000000                                                     000                   00000000000000000                                                                                                                                                                                                                                                                                                                                                                                                                                                                                                                                                                                                                                          
000000328044912953RJ1009510000000137040000000000000000                                                     000                   00000000000000000                                                                                                                                                                                                                                                                                                                                                                                                                                                                                                                                                                                                                                          
000000328044912953RJ1824740000001114400000000000000000                                                     000                   00000000000000000                                                                                                                                                                                                                                                                                                                                                                                                                                                                                                                                                                                                                                          
000000328044912953RJ1824741000000278600000000000000000                                                     000                   00000000000000000                                                                                                                                                                                                                                                                                                                                                                                                                                                                                                                                                                                                                                          
000000328044912953RJ1826301000000752000000000000000000                                                     000                   00000000000000000                                                                                                                                                                                                                                                                                                                                                                                                                                                                                                                                                                                                                                          
000000328044912953RJ1827370000000247000000000000000000                                                     000                   00000000000000000                                                                                                                                                                                                                                                                                                                                                                                                                                                                                                                                                                                                                                          
000000328044912953RJ2300701000000026320000005000000015                                                     000                   00000000000000000                                                                                                                                                                                                                                                                                                                                                                                                                                                                                                                                                                                                                                          
000000328044912953RJ2300811000000047900000000000000000                                                     000                   00000000000000000                                                                                                                                                                                                                                                                                                                                                                                                                                                                                                                                                                                                                                          
000000328044912953RJ2309381000000026210000000000000000                                                     000                   00000000000000000                                                                                                                                                                                                                                                                                                                                                                                                                                                                                                                                                                                                                                          
000000328044912953RJ2319071000000004860000000000000000                                                     000                   00000000000000000                                                                                                                                                                                                                                                                                                                                                                                                                                                                                                                                                                                                                                          
000000328044912953RJ2322181000000166600520000000000000                                                     000                   00000000000000000                                                                                                                                                                                                                                                                                                                                                                                                                                                                                                                                                                                                                                          
000000328044912953RJ2322182000000345730520000000000000                                                     000                   00000000000000000                                                                                                                                                                                                                                                                                                                                                                                                                                                                                                                                                                                                                                          
000000328044912953RJ2322183000000656580520000000000000                                                     000                   00000000000000000                                                                                                                                                                                                                                                                                                                                                                                                                                                                                                                                                                                                                                          
000000328044912953RJ2322184000000034400430000000000000                                                     000                   00000000000000000                                                                                                                                                                                                                                                                                                                                                                                                                                                                                                                                                                                                                                          
000000328044912953RJ2322861000000144090200000000000000                                                     000                   00000000000000000                                                                                                                                                                                                                                                                                                                                                                                                                                                                                                                                                                                                                                          
000000328044912953RJ2323681000000122070510000000000000                                                     000                   00000000000000000                                                                                                                                                                                                                                                                                                                                                                                                                                                                                                                                                                                                                                          
000000328044912953RJ2324361000000020460470000000000000                                                     000                   00000000000000000                                                                                                                                                                                                                                                                                                                                                                                                                                                                                                                                                                                                                                          
000000328044912953RJ2980020000000579100000000000000000                                                     000                   00000000000000000                                                                                                                                                                                                                                                                                                                                                                                                                                                                                                                                                                                                                                          
000000328044912953RJ2990010000000530630000000000000000                                                     000                   00000000000000000                                                                                                                                                                                                                                                                                                                                                                                                                                                                                                                                                                                                                                          
000000328044912954RJ000000595259000000270495000000324764021                                                                                                                                                                                                                                                                                                                                                                                                                                                                                                                                                                                                                                                                                                                                                              
